:020000040800F2
:1000000000000220A1A101083723000845230008B1
:100010004B2300085123000857230008000000006C
:10002000000000000000000000000000517B0008FC
:100030005D23000800000000917D0008F97D0008A4
:10004000F1A10108F1A10108F1A10108F1A1010844
:10005000F1A10108F1A10108F1A10108F1A1010834
:10006000F1A10108F1A10108F1A10108F1A1010824
:10007000F1A10108F1A10108F1A10108F1A1010814
:100080006D23000881230008F1A10108F1A10108F6
:10009000F1A10108F1A10108F1A10108F1A10108F4
:1000A000F1A1010895230008F1A10108F1A10108BF
:1000B000F1A10108F1A10108F1A10108F1A10108D4
:1000C000F1A10108F1A10108F1A10108F1A10108C4
:1000D000F1A10108F1A10108A9230008F1A101087B
:1000E000F1A10108F1A10108F1A10108F1A10108A4
:1000F000F1A10108F1A10108F1A10108F1A1010894
:10010000F1A10108F1A10108F1A10108F1A1010883
:10011000F1A10108F1A10108F1A10108F1A1010873
:10012000F1A10108F1A10108F1A10108F1A1010863
:10013000F1A10108F1A10108F1A10108F1A1010853
:10014000F1A10108F1A10108F1A10108F1A1010843
:10015000F1A10108F1A10108F1A10108F1A1010833
:10016000F1A10108F1A10108F1A10108F1A1010823
:10017000F1A10108F1A10108F1A1010800000000AE
:08018000F1A10108F1A1010841
:1001900010B5054C237833B9044B13B10448AFF3C1
:1001A00000800123237010BD5802002000000000D1
:1001B00010BE010808B5034B1BB103490348AFF358
:1001C000008008BD000000005C02002010BE010895
:1001D00010F8012B11F8013B012A28BF9A42F7D0F1
:1001E000D01A7047034613F8012B002AFBD1181AC6
:1001F000013870470000000000000000000000000F
:1002000001F0FF01102A2BDB10F0070F08D010F8C7
:10021000013B013A8B422DD010F0070F42B3F6D1CB
:10022000F0B441EA012141EA014122F007047FF0E4
:1002300000070023F0E80256083C85EA010586EA3B
:10024000010685FA47F5A3FA87F586FA47F6A5FA77
:1002500087F68EB9EED1F0BC01F0FF0102F0070283
:1002600032B110F8013B013A83EA010313B1F8D12E
:100270000020704701387047002D06BF354603380F
:10028000073815F0010F07D1013015F4807F02BF48
:10029000013015F4C03F0130F0BC0138704700BF99
:1002A00081F0004102E000BF83F0004330B54FEA27
:1002B00041044FEA430594EA050F08BF90EA020F94
:1002C0001FBF54EA000C55EA020C7FEA645C7FEA27
:1002D000655C00F0E2804FEA5454D4EB5555B8BF4A
:1002E0006D420CDD2C4480EA020281EA030382EABB
:1002F000000083EA010180EA020281EA0303362D4D
:1003000088BF30BD11F0004F4FEA01314FF4801C1F
:100310004CEA113102D0404261EB410113F0004F31
:100320004FEA03334CEA133302D0524263EB4303E8
:1003300094EA050F00F0A780A4F10104D5F1200E86
:100340000DDB02FA0EFC22FA05F2801841F10001E1
:1003500003FA0EF2801843FA05F359410EE0A5F1B5
:1003600020050EF1200E012A03FA0EFC28BF4CF0E6
:10037000020C43FA05F3C01851EBE37101F000459C
:1003800007D54FF0000EDCF1000C7EEB00006EEBA9
:100390000101B1F5801F1BD3B1F5001F0CD3490833
:1003A0005FEA30004FEA3C0C04F101044FEA44528A
:1003B00012F5800F80F09A80BCF1004F08BF5FEA11
:1003C000500C50F1000041EB045141EA050130BDF1
:1003D0005FEA4C0C404141EB010111F4801FA4F194
:1003E0000104E9D191F0000F04BF01460020B1FAE9
:1003F00081F308BF2033A3F10B03B3F120020CDA21
:100400000C3208DD02F1140CC2F10C0201FA0CF0FE
:1004100021FA02F10CE002F11402D8BFC2F1200C63
:1004200001FA02F120FA0CFCDCBF41EA0C01904019
:10043000E41AA2BF01EB0451294330BD6FEA040462
:100440001F3C1CDA0C340EDC04F11404C4F120024D
:1004500020FA04F001FA02F340EA030021FA04F35F
:1004600045EA030130BDC4F10C04C4F1200220FAB6
:1004700002F001FA04F340EA0300294630BD21FAF4
:1004800004F0294630BD94F0000F83F4801306BFBA
:1004900081F480110134013D4EE77FEA645C18BFAE
:1004A0007FEA655C29D094EA050F08BF90EA020F45
:1004B00005D054EA000C04BF1946104630BD91EA3D
:1004C000030F1EBF0021002030BD5FEA545C05D140
:1004D0004000494128BF41F0004130BD14F580047F
:1004E0003CBF01F5801130BD01F0004545F0FE41F3
:1004F00041F470014FF0000030BD7FEA645C1ABF28
:10050000194610467FEA655C1CBF0B46024650EA5E
:10051000013406BF52EA033591EA030F41F400218A
:1005200030BD00BF90F0000F04BF0021704730B510
:100530004FF4806404F132044FF000054FF00001E5
:1005400050E700BF90F0000F04BF0021704730B5A6
:100550004FF4806404F1320410F0004548BF40427B
:100560004FF000013EE700BF42004FEAE2014FEAD0
:1005700031014FEA02701FBF12F07F4393F07F4FAB
:1005800081F06051704732F07F4208BF704793F0AE
:100590007F4F04BF41F40021704730B54FF46074C1
:1005A00001F0004521F000411CE700BF50EA0102C4
:1005B00008BF704730B54FF000050AE050EA01026D
:1005C00008BF704730B511F0004502D5404261EBDD
:1005D00041014FF4806404F132045FEA915C3FF41E
:1005E000D8AE4FF003025FEADC0C18BF03325FEABB
:1005F000DC0C18BF033202EBDC02C2F1200300FA6C
:1006000003FC20FA02F001FA03FE40EA0E0021FA90
:1006100002F11444BDE600BF70B54FF0FF0C4CF47E
:10062000E06C1CEA11541DBF1CEA135594EA0C0F30
:1006300095EA0C0F00F0DEF82C4481EA030621EA6B
:100640004C5123EA4C5350EA013518BF52EA0335A6
:1006500041F4801143F4801338D0A0FB02CE4FF058
:100660000005E1FB02E506F00042E0FB03E54FF088
:100670000006E1FB03569CF0000F18BF4EF0010E80
:10068000A4F1FF04B6F5007F64F5407404D25FEA7C
:100690004E0E6D4146EB060642EAC62141EA55512F
:1006A0004FEAC52040EA5E504FEACE2EB4F1FD0C71
:1006B00088BFBCF5E06F1ED8BEF1004F08BF5FEAEF
:1006C000500E50F1000041EB045170BD06F00046A1
:1006D00046EA010140EA020081EA0301B4EB5C044E
:1006E000C2BFD4EB0C0541EA045170BD41F4801146
:1006F0004FF0000E013C00F3AB8014F1360FDEBF6B
:10070000002001F0004170BDC4F10004203C35DA46
:100710000C341BDC04F11404C4F1200500FA05F3C9
:1007200020FA04F001FA05F240EA020001F000426A
:1007300021F0004110EBD37021FA04F642EB0601E0
:100740005EEA430E08BF20EAD37070BDC4F10C040A
:10075000C4F1200500FA04F320FA05F001FA04F2CE
:1007600040EA020001F0004110EBD37041F10001BA
:100770005EEA430E08BF20EAD37070BDC4F12005C5
:1007800000FA05F24EEA020E20FA04F301FA05F22D
:1007900043EA020321FA04F001F0004121FA04F2D5
:1007A00020EA020000EBD3705EEA430E08BF20EAA5
:1007B000D37070BD94F0000F0FD101F000464000DF
:1007C00041EB010111F4801F08BF013CF7D041EA61
:1007D000060195F0000F18BF704703F00046520065
:1007E00043EB030313F4801F08BF013DF7D043EA36
:1007F0000603704794EA0C0F0CEA135518BF95EAEC
:100800000C0F0CD050EA410618BF52EA4306D1D172
:1008100081EA030101F000414FF0000070BD50EA91
:10082000410606BF1046194652EA430619D094EA1B
:100830000C0F02D150EA013613D195EA0C0F05D105
:1008400052EA03361CBF104619460AD181EA030159
:1008500001F0004141F0FE4141F470014FF0000011
:1008600070BD41F0FE4141F4780170BD70B54FF0AC
:10087000FF0C4CF4E06C1CEA11541DBF1CEA13552C
:1008800094EA0C0F95EA0C0F00F0A7F8A4EB05040E
:1008900081EA030E52EA03354FEA013100F0888005
:1008A0004FEA03334FF0805545EA131343EA1263CE
:1008B0004FEA022245EA111545EA10654FEA002683
:1008C0000EF000419D4208BF964244F1FD0404F53C
:1008D000407402D25B084FEA3202B61A65EB030598
:1008E0005B084FEA32024FF480104FF4002CB6EB55
:1008F000020E75EB030E22BFB61A754640EA0C00D5
:100900005B084FEA3202B6EB020E75EB030E22BF14
:10091000B61A754640EA5C005B084FEA3202B6EB55
:10092000020E75EB030E22BFB61A754640EA9C0014
:100930005B084FEA3202B6EB020E75EB030E22BFE4
:10094000B61A754640EADC0055EA060E18D04FEAA2
:10095000051545EA16754FEA06164FEAC30343EA42
:1009600052734FEAC2025FEA1C1CC0D111F4801F0F
:100970000BD141EA00014FF000004FF0004CB6E708
:1009800011F4801F04BF01430020B4F1FD0C88BFA7
:10099000BCF5E06F3FF6AFAEB5EB030C04BFB6EBB2
:1009A000020C5FEA500C50F1000041EB045170BDA5
:1009B0000EF0004E4EEA113114EB5C04C2BFD4EBD2
:1009C0000C0541EA045170BD41F480114FF0000E56
:1009D000013C90E645EA060E8DE60CEA135594EAD2
:1009E0000C0F08BF95EA0C0F3FF43BAF94EA0C0FD5
:1009F0000AD150EA01347FF434AF95EA0C0F7FF44A
:100A000025AF104619462CE795EA0C0F06D152EA9D
:100A100003353FF4FDAE1046194622E750EA410681
:100A200018BF52EA43067FF4C5AE50EA41047FF492
:100A30000DAF52EA43057FF4EBAE12E74FF0FF3CF7
:100A400006E000BF4FF0010C02E000BF4FF0010CC8
:100A50004DF804CD4FEA410C7FEA6C5C4FEA430C41
:100A600018BF7FEA6C5C1BD001B050EA410C0CBF90
:100A700052EA430C91EA030F02BF90EA020F0020F2
:100A8000704710F1000F91EA030F58BF994208BF59
:100A900090422CBFD8176FEAE37040F00100704716
:100AA0004FEA410C7FEA6C5C02D150EA013C07D16D
:100AB0004FEA430C7FEA6C5CD6D152EA033CD3D0B8
:100AC0005DF8040B704700BF8446104662468C46B2
:100AD0001946634600E000BF01B5FFF7B7FF0028E5
:100AE00048BF10F1000F01BD4DF808EDFFF7F4FF0E
:100AF0000CBF012000205DF808FB00BF4DF808ED99
:100B0000FFF7EAFF34BF012000205DF808FB00BFBB
:100B10004DF808EDFFF7E0FF94BF012000205DF8DD
:100B200008FB00BF4DF808EDFFF7CEFF94BF012092
:100B300000205DF808FB00BF4DF808EDFFF7C4FF8B
:100B400034BF012000205DF808FB00BF7BB972B9FB
:100B50000029BEBF00204FF0004106E008BF00287A
:100B60001CBF6FF000414FF0FF3001F08BB9ADF1C9
:100B7000080C6DE904CE002909DB002B1ADB00F01C
:100B80004DF8DDF804E0DDE9022304B0704740428F
:100B900061EB4101002B1BDB00F040F8DDF804E0C5
:100BA000DDE9022304B0404261EB4101524263EBB4
:100BB00043037047524263EB430300F02FF8DDF824
:100BC00004E0DDE9022304B0404261EB41017047DB
:100BD000524263EB430300F021F8DDF804E0DDE965
:100BE000022304B0524263EB4303704753B94AB93E
:100BF000002908BF00281CBF4FF0FF314FF0FF3025
:100C000001F040B9ADF1080C6DE904CE00F006F832
:100C1000DDF804E0DDE9022304B070472DE9F04778
:100C2000089E04468846002B40F085808A4215467F
:100C300048D9B2FA82F24AB1C2F1200701FA02F3AE
:100C400020FA07F7954047EA030894404FEA154E0B
:100C5000230CB8FBFEF71FFA85FC0EFB178843EA4E
:100C6000084307FB0CF1994209D9EB1807F1FF3053
:100C700080F0E380994240F2E080023F2B445B1A0F
:100C8000A4B2B3FBFEF00EFB103344EA034400FBB6
:100C90000CFCA44509D92C1900F1FF3380F0CB805E
:100CA000A44540F2C88002382C4440EA0740A4EB37
:100CB0000C0400271EB1D4400023C6E90043394686
:100CC000BDE8F087002A53D0B2FA82F2002A40F041
:100CD000B680491B4FEA154E1FFA85F80127B1FB74
:100CE000FEFC230C0EFB1C1143EA014308FB0CF134
:100CF000994207D9EB180CF1FF3002D2994200F269
:100D0000EC808446591AA3B2B1FBFEF00EFB10141E
:100D100043EA044408FB00F8A04507D92C1900F168
:100D2000FF3302D2A04500F2DC801846A4EB080491
:100D300040EA0C40BEE78B4208D9002E78D000274D
:100D4000C6E9000138463946BDE8F087B3FA83F7B3
:100D50007FB98B4202D3824200F2BD80841A61EBDC
:100D6000030301209846002EA9D0C6E90048A6E753
:100D7000FFDEC7F12005BB4022FA05FC4CEA030C5C
:100D800001FA07F420FA05F821FA05F34FEA1C4EA0
:100D900048EA0404B3FBFEF9210C0EFB19331FFAD9
:100DA0008CF841EA034309FB08FA9A4502FA07F274
:100DB00000FA07F10BD91CEB030309F1FF3080F0B7
:100DC00088809A4540F28580A9F102096344A3EB2B
:100DD0000A03A4B2B3FBFEF00EFB103344EA034453
:100DE00000FB08F8A04508D91CEB040400F1FF3310
:100DF0006BD2A04569D90238644440EA0940A4EBAB
:100E00000804A0FB02894C45C6464B4654D351D03A
:100E1000002E69D0B1EB0E0264EB030404FA05F571
:100E200022FA07F3FC401D43C6E90054002746E7B9
:100E30003746304643E7184637E707461FE7C2F113
:100E4000200320FA03F7954001FA02F021FA03F398
:100E50004FEA154E3843010CB3FBFEF71FFA85F835
:100E60000EFB173341EA034107FB08F38B4204FAF8
:100E700002F407D9691807F1FF3C28D28B4226D922
:100E8000023F2944CB1A81B2B3FBFEF00EFB1033B4
:100E900041EA034100FB08F38B4207D9691800F1CE
:100EA000FF3C10D28B420ED902382944C91A40EABD
:100EB000074714E74145ABD2B8EB020E69EB0C02D1
:100EC00001381346A4E76046F0E7184695E7674601
:100ED000D8E781467BE7384645E7ACF1020C2B4466
:100EE00010E702382C4421E73746E8E603685A0049
:100EF0004CBF43F0004323F000431844704700BF49
:100F000069B32DE9F04701F1FF3917460646C84697
:100F10004FF0000A0AEB080404EBD4746410E500F7
:100F200071190846FFF7E2FFA145034605F10800E5
:100F3000304409D0BB4209D8FFF7D8FF0138B84286
:100F40000AD204F1010AE5E7BB4205D9A24502D065
:100F500004F1FF38DEE700210846BDE8F0870846C7
:100F6000704700BF012807D0022807D0044B002893
:100F70000CBF18460020704702487047024870476F
:100F800041160008451600084916000830B5244BE4
:100F900083B004468D1E4BB301A92846AFF30080F1
:100FA000F0B101992A46FFF7ABFF0146C0B1FFF748
:100FB0009DFF4B68A064012B2ED0002B01F1040093
:100FC00026DBFFF793FF0023C4E913030368002B1C
:100FD00012DBFFF78BFF00232061184603B030BD02
:100FE000002323610923184603B030BD0D490E4884
:100FF000091AC9100191D5E7C3F30360FFF7B2FFE7
:10100000002814BF002309232061184603B030BD17
:101010000123C4E91303D9E7002323610523DCE797
:1010200000000000A0E90108C8E801080368DA0729
:1010300010B5044606D49B0700F1480009D500F01E
:1010400059FC2368590709D51A070ED5DB0613D5B5
:1010500010BD00F047FC23685907F5D404F1D00017
:1010600000F050FC23681A07F0D404F5A87000F0D3
:1010700051FC2368DB06EBD404F5E870BDE81040B2
:1010800000F08CBC036803B103441846704700BFEE
:1010900009207047704700BF70B504460D46296CA3
:1010A0002046FFF773FF064688B92B6C63612A461A
:1010B00023692146012098470828F0D0072806D147
:1010C0003046296CFFF7E6FF281D00F0FFFB1AF001
:1010D000B7FB00BF2DE9F0470C1D054617460FCCA6
:1010E000ADF5727D03AE0FC60FCC0FC60FCC0FC689
:1010F00094E80F0002ACD5F80C80D5F8189086E87B
:101100000F0000232846216C2360FFF73FFF002FCC
:10111000064614BF0A27092746BB236C6B614FF4B0
:10112000F07221467AA819F0B5FB2B697AAA2946F4
:1011300038469847889B8246CDE900493946636422
:101140002A462B460120C047D8B94FF4F0727AA93D
:10115000204619F09FFBBAF1080F18D1216C2846E0
:10116000FFF714FF06460927002ED6D0A36B47F0E1
:101170001001CDE900492A46636401202B46C0478F
:1011800000B1092630460DF5727DBDE8F087BAF151
:10119000070FF6D13046216CFFF77CFF03A800F063
:1011A00095FB00BF406C7047F0B5CB6B0B640E1D18
:1011B0000F4604460FCEF9B001AD0FC50FCE0FC5D7
:1011C0000FCE0FC596E80F004FF0FF3685E80F00F1
:1011D000009606E023696A46214698470828054696
:1011E00008D110992046FFF7D1FE0028F2D009203F
:1011F00079B0F0BD6846FFF719FF062DF7D13946E3
:101200002046FFF749FF00BF30B4DD6BC16082614B
:1012100019461D64002230BC5CE700BF70B5C6688B
:1012200043690B64AEB903690A4604460D4601469C
:1012300002209847072805D008280FD129462046C4
:10124000FFF72AFF3046296CFFF724FF281D00F026
:101250003DFB0122FFF73EFF1AF0F2FA1AF0F0FA16
:10126000C2681AB1CA6B0A64002233E79CE700BF68
:10127000704700BF836813B10146012018477047CB
:10128000042910D8DFE801F005030F030300012053
:10129000704743B90F2A06D800EB820218465368FC
:1012A000009A136070470220704700BF10B584B0E9
:1012B000002303AC0A4600941946FFF7E1FF0398A8
:1012C00004B010BD042910D8DFE801F005030F03B6
:1012D00003000120704743B90F2A06D800EB8200B3
:1012E000009A12684260184670470220704700BF9B
:1012F00010B584B0002303AC039200940A4619464B
:10130000FFF7E0FF04B010BDF0B5D36B1364151DFB
:1013100007460E460FCDADF50F7D17AC0FC40FCDB0
:101320000FC40FCD0FC495E80F004FF0FF3584E8D0
:101330000F00169510E016A8FFF7DAFF314616A841
:10134000B84716AA694678B9049B0820984705282B
:1013500004460AD0092807D026996846FFF716FEEA
:101360006A460C210028E6D0092416A8FFF75EFE85
:1013700020460DF50F7DF0BD2DE9F04FCC6C89B006
:101380000D4654F8041B0694174600F003081E4649
:10139000002B61D00B0CDAB209048DF81D3002234A
:1013A00004EB820405918DF81C302B6DB8F1020F0F
:1013B00008BFAC6B13F0010378D1019300F0080370
:1013C0000293D4F800A0BAF1000F00F01B81022EA6
:1013D0003ED0B4F800A0B4F802900434AA6C29F00E
:1013E000010B0F2138469344FFF760FF83452DD84A
:1013F0002AF001025A44824294BF002001204FEAA1
:10140000490303F002030AF0010A43EA0A03012B2D
:1014100030D03BB3022B15D1236823F0004BB8F139
:10142000000F4DD130B1029A002A6DD0BBF1000FF0
:1014300000F0A080002B00DA04340BF1010B04EB68
:101440008B04BEE7092009B0BDE8F08F0020D6E785
:10145000D4F804900834C1E7090203230591ADF8DC
:101460001C30A2E7B8F1000F02D0002840F09D80A8
:101470000434A6E7B8F1000F2CD1A8B1D4E90023B9
:10148000991C4FEAD272DDD005F158010133049165
:1014900000F09E80201DFFF7F5FD04AB01462846B5
:1014A000AFF3008000286FD108348AE7384605A9D9
:1014B00000F00EFB0028C5D1082009B0BDE8F08F70
:1014C0000D213846D5F82090FFF7F0FE814540D039
:1014D0002368AFE70D213846D5F82090FFF7E6FEE8
:1014E0008145E1D1AB6A9C42DED12046FFF7FEFC8C
:1014F0000F2102463846FFF7FBFE38462A460021F8
:10150000FFF7F6FE07209EE7BBF1000F32D005F192
:101510005803CDF80C8004F10409B046DDF808A0AA
:101520001E4601E0DA4525D048460496FFF7AAFD9D
:1015300004AB014600222846AFF300800AF1010AFD
:1015400009F104090028EDD046462368DDF80C8037
:1015500070E7AB6A9C42BBD104224FF00009A3188C
:10156000C5E90AB9C5E90C2323684B4538DB0123DB
:10157000019362E738460D21FFF798FE049B28622D
:10158000C5E9093406205EE781460D213846FFF79C
:101590008DFEB9F1020F28621FD12B46049A43F841
:1015A0002C2F6B62AC6206204DE72046FFF79EFCB5
:1015B00004340646AC632846AFF3008000283FF4AD
:1015C00041AF384632460F21FFF792FE07203AE737
:1015D00038460D21FFF76AFE2862049B6B62E1E743
:1015E0000BF1010004EB8000FFF780FC0F210246A5
:1015F0003846FFF77DFE38462A464946FFF778FE13
:10160000072020E705A9384600F062FA00287FF499
:1016100019AF019B002B3FF44FAF0F213846FFF766
:1016200045FE0E2102463846FFF762FE3846034A61
:101630000F21FFF75DFE072005E700BF0000000057
:10164000002399E6012397E6022395E62DE9F04170
:101650000546C4B0042900F2B380DFE801F09551DB
:10166000B12B0300002B40F0AB80102A00F2A880C1
:101670002B68DC0600F1008122AC2046019200F0CC
:1016800097F9AE6B019A0023012707FA03F1114283
:10169000304604D050F8041B44F8231006460133AA
:1016A000042BF2D12046AE6300F078F9002044B05C
:1016B000BDE8F081032B40F08380160C97B2F3193C
:1016C000102B7DD82B681A0700F1E08022AC204651
:1016D00000F042F904EBC600A96B4FB10346FA00D3
:1016E0001044CE1A9F5943F8047B8342FAD1114427
:1016F0002046A96300F00EF9002044B0BDE8F08157
:10170000012B4FEA12461FFA82F855D0052B57D10C
:1017100006EB0807202F53D80F2E55D94746B8F1AE
:10172000000F64D14046A96BB8F1000F00F0BA80F9
:1017300022AC002704EBC604043C01EBC00251F8C4
:10174000040B44F8040F9142F9D17FB102AC102E82
:10175000304638BF102004EBC000843802EBC701CC
:1017600052F8044B40F8044F9142F9D1012B00F09C
:1017700095800F2EA9636BD917B102A800F0C2F8AB
:10178000002044B0BDE8F081D3B9AC6B97B201261C
:1017900005F1040C06FA03F13942204604D050F852
:1017A000041B4CF8231004460133102BF2D112F421
:1017B0000050E5D1AC6304E006EB0802102A28D9FA
:1017C000022044B0BDE8F081102F7CD9103F2A6878
:1017D000D0070AD5284622F0010242F0020240F862
:1017E000482B019300F08AF8019B002F5CD02A68F7
:1017F000510737D40F2E2FD902AC2046019300F0A9
:1018000085F8C6F110000028A96B019B48DD22ACC9
:1018100090E70F2ED4D82A68D10708D5284622F0A1
:10182000030240F8482B019300F060F8019B0193FC
:1018300022AC204600F05AF84046A96B019B0028D4
:101840007FF477AF0431A963204600F04BF897E7A7
:1018500022A800F04FF88FE722A8019300F04EF87D
:10186000019BC9E7284622F0040240F8D02B0193DF
:1018700000F04CF8019BBDE723F010032B6005F549
:10188000E870019200F094F8019AF5E623F008035D
:101890002B6005F5A87000F05FF817E722ACD1E7E0
:1018A0000A4654E7474664E70F2E3FF63BAF22ACAB
:1018B0002046019300F022F84046A96B019B0028C6
:1018C0007FF437AF55E7002781E700BF00F134010F
:1018D00091E838009C46A6464CF8045D90E8FF0F5E
:1018E000E54600BD90EC210B704700BF80EC210B5A
:1018F000704700BF90EC200B704700BF80EC200BBE
:10190000704700BFD0EC200B704700BFC0EC200B2D
:10191000704700BFF0EC0201F0EC0211F0EC022184
:10192000F0EC0231F0EC0241F0EC0251F0EC02611B
:10193000F0EC0271F0EC0281F0EC0291F0EC02A10B
:10194000F0EC02B1F0EC02C1F0EC02D1F0EC02E1FB
:10195000F0EC02F1704700BFE0EC0201E0EC021194
:10196000E0EC0221E0EC0231E0EC0241E0EC02515B
:10197000E0EC0261E0EC0271E0EC0281E0EC02914B
:10198000E0EC02A1E0EC02B1E0EC02C1E0EC02D13B
:10199000E0EC02E1E0EC02F1704700BFB0FC018135
:1019A000B0FC0191B0FC01A1B0FC01B1704700BFD7
:1019B000A0FC0181A0FC0191A0FC01A1A0FC01B14F
:1019C000704700BFEC4600B52DE900502DE9FF1F20
:1019D0004FF000032DE90C0001A9FFF7E5FBDDF84E
:1019E00040E012B0704700BFEC4600B52DE9005052
:1019F0002DE9FF1F4FF000032DE90C0001A9FFF7AF
:101A00000DFCDDF840E012B0704700BFEC4600B5B9
:101A10002DE900502DE9FF1F4FF000032DE90C00C8
:101A200001A9FFF71DFCDDF840E012B0704700BFD0
:101A3000EC4600B52DE900502DE9FF1F4FF00003E3
:101A40002DE90C0001ABFFF7DFFBDDF840E012B041
:101A5000704700BFEC4600B52DE900502DE9FF1F8F
:101A60004FF000032DE90C0001AAFFF74DFCDDF853
:101A700040E012B0704700BF027A82B9437AABB13E
:101A80004268013B10B4437213680321141D0172B4
:101A90001A02446002605DF8044B180E7047036838
:101AA000013A02721A020260180E7047B0207047A5
:101AB00000B585B003AA0023009219460C22FFF757
:101AC000DFFB039805B05DF804FB00BFF0E700BF43
:101AD0002DE9F043054685B00E464FF0000830462C
:101AE000FFF7CAFFB028044600F0B280070620D5F1
:101AF00000F0F003802B4DD0902B36D0A02B60D07F
:101B0000B02B74D0C02B00F08B8000F0F803D02BEA
:101B10000BD100F00702013242F40022052301211B
:101B20002846FFF793FD0028D9D0092005B0BDE86D
:101B3000F0830DF10C09002319468700CDF80090C1
:101B40000D222846FFF79CFBFFB2039BCDF80090C7
:101B5000043760064CBFDF1BFF18002319460D2217
:101B600028460397FFF7AEFBB9E700F00D030D2BF6
:101B7000DBD003AF002300F00F0219460097284680
:101B8000FFF77EFB0023009719460D222846FFF73A
:101B900099FBA4E73046FFF76FFF24020443B4F536
:101BA000004FC2D024010023A2B219462846FFF7F5
:101BB0004DFD0028B9D114F4004F18BF4FF00108B3
:101BC0008DE7C24302F007034FF47F621A41010719
:101BD00002F47F624FF0000348BF42F4804219468E
:101BE0002846FFF733FD00283FF479AF9DE7B12881
:101BF00033D0B22800F0A080B32841D000F0FC031D
:101C0000B42B92D000F007020132012342F40022EB
:101C100019462846FFF71AFD00283FF460AF84E715
:101C2000C62851D0C7285AD000F0F803C02B69D07D
:101C3000C82875D0C9287FF478AF3046FFF71CFF5D
:101C4000020300F00F0002F470220130024365E746
:101C5000B8F1000F27D0002068E73046FFF70CFFEF
:101C600000283FF462AF10F0F0037FF45EAF02464D
:101C700019462846FFF7EAFC00283FF430AF54E746
:101C80003046FFF7F9FE010300F00F0001F4702168
:101C9000421C01230A4328461946FFF7D7FC0028B7
:101CA0003FF41DAF41E703AC43460E22414600948A
:101CB0002846FFF7E5FA0094284643460F2241469E
:101CC000FFF700FB404631E73046FFF7D5FE010342
:101CD00000F00F0001F47021421C0323DAE73046C4
:101CE000FFF7CAFE00283FF420AF10F0F0037FF4A6
:101CF0001CAF024604212846FFF7A8FC00283FF449
:101D0000EEAE12E700F00F020132032342F420226C
:101D100019462846FFF79AFC00283FF4E0AE04E796
:101D20003046FFF7A9FE00F0F00200F00F0310327A
:101D3000013343EA0232F1E600230DF10C090D22D2
:101D40001946CDF800902846FFF79AFA3046FFF77B
:101D500093FE02064FF002070CD5039B00F07F00B4
:101D6000B840034430460393FFF786FE030607F1AD
:101D70000707F2D4039BCDF8009000F07F0403F531
:101D80000172BC400023144419460D2228460394D6
:101D9000FFF798FAA3E600BF10B5C36C84B05A6889
:101DA00003208DF80C00DC798DF80D401202083309
:101DB000084601A901920293FFF78AFE04B010BD04
:101DC00008B5FFF783FE806C08BD00BF08B5FFF7BC
:101DD0007DFEC06CC379023300EB830008BD00BFF9
:101DE0000020704770B5D0E90064042C05460ED879
:101DF000301D18F031FDF8B1E9680060031D32466E
:101E00001846A1B118F046FD0346184670BDA0194A
:101E1000033018F021FD78B1E31C034464422340F1
:101E2000324643F8040CE96818460029EAD118F054
:101E300059FD0346184670BD19F002FD10B5044661
:101E4000FFF7CEFF38B9A06800B110BD2046FFF7FC
:101E5000C9FFA06010BD19F0F3FC00BF10B4046806
:101E60008C4202D200240160C4604468944238BFAE
:101E700042601BB102688A4208BFC3605DF8044B30
:101E8000704700BF704700BF80B584B000AF786076
:101E90007B68DBB23B73084B1B68002B07D0064BFB
:101EA000186807F10C010A23012200F0F4FD7B6899
:101EB00018461037BD4680BD7402002080B586B03C
:101EC00000AFF860B9607A6000237B6109E0BB680D
:101ED0005A1CBA601B781846FFF7D6FF7B6901339E
:101EE0007B617A697B689A42F1DB7B681846183718
:101EF000BD4680BD80B500AF03F066F900F018F86C
:101F000000F0A8F800F07CF806F00AF8054A002175
:101F1000054806F06FF80246044B1A6006F034F8E4
:101F2000FEE700BFFCDC01087921000870DD00201D
:101F300080B594B000AF07F120033022002118468D
:101F400018F0D0FC07F10C0300221A605A609A6066
:101F5000DA601A610023BB60274B1B6C264A43F0F2
:101F600080531364244B1B6C03F08053BB60BB682D
:101F700000237B60214B1B68204A43F4804313609D
:101F80001E4B1B6803F480437B607B6802233B622B
:101F900001237B620223BB630023FB6308233B64B2
:101FA00032237B640423BB640723FB6407F1200313
:101FB000184601F049FE0346002B01D000F0B4F9A9
:101FC0000F23FB6002233B6100237B614FF4A0538E
:101FD000BB614FF48053FB6107F10C0305211846E8
:101FE00002F0A2F80346002B01D000F09DF900BFDB
:101FF0005037BD4680BD00BF003802400070004031
:1020000080B500AF114B124A1A60104B4FF4E13209
:102010005A600E4B00229A600C4B0022DA600B4B88
:1020200000221A61094B0C225A61084B00229A6166
:10203000064B0022DA61054800F0E0FC0346002B65
:1020400001D000F071F900BF80BD00BF34EE002068
:102050000044004080B58CB000AF07F11C030022A3
:102060001A605A609A60DA601A610023BB613F4BC4
:102070001B6B3E4A43F0040313633C4B1B6B03F0A2
:102080000403BB61BB6900237B61384B1B6B374A80
:1020900043F080031363354B1B6B03F080037B61BC
:1020A0007B6900233B61314B1B6B304A43F00203D9
:1020B00013632E4B1B6B03F002033B613B69002350
:1020C000FB602A4B1B6B294A43F008031363274B21
:1020D0001B6B03F00803FB60FB680023BB60234B12
:1020E0001B6B224A43F040031363204B1B6B03F02E
:1020F0004003BB60BB6800237B601C4B1B6B1B4A0F
:1021000043F001031363194B1B6B03F001037B6066
:102110007B6800224FF47041154802F0C7FB002293
:102120002021144802F0C2FB4FF47043FB610123ED
:102130003B6200237B620023BB6207F11C0319464C
:102140000B4802F019FA2023FB6101233B620023B4
:102150007B620023BB6207F11C031946054802F0AD
:102160000BFA00BF3037BD4680BD00BF00380240CB
:10217000000C02400000024080B5ADF5107D00AFBC
:102180003B1D186001222021534802F08FFB0023E1
:1021900087F83F32012387F83F3207F50973184665
:1021A00009F0D2FC4D4BC7F824324D4BC7F828320A
:1021B0004C4BC7F82C324C4BC7F8303207F509733B
:1021C000184609F0D5FC034683F00103DBB2002B6F
:1021D00004D04FF4B271454818F01EFF07F50073A4
:1021E00024220021184618F07DFB414BC7F800322D
:1021F00042F6E063C7F814321923C7F8183207F51E
:1022000000731A4600213B4805F0F4FE4FF4FA70C3
:1022100005F096FF07F10C03184605F007F836485D
:1022200018F080FF354818F07DFF334818F07AFF2A
:1022300007F10C03184618F0EFFE2F4818F072FF54
:102240002B4804F033FAC7F83802D7F8380204F004
:102250003BF80346032B29D097F83F32002B25D0BB
:1022600000224FF48041264802F020FB642005F054
:1022700067FF01224FF48041214802F017FB6420E0
:1022800005F05EFF00224FF480411D4802F00EFB76
:10229000962005F055FF01224FF48041184802F0C6
:1022A00005FB4FF4FA7005F04BFF13E000224FF4EA
:1022B0008041134802F0FAFA4FF47A7005F040FFBB
:1022C00001224FF480410E4802F0F0FA4FF47A7088
:1022D00005F036FFB9E700BF00000240698A000838
:1022E000AD8A0008E18A0008698B000834BE010845
:1022F0005CBE0108B98B00086CBE010890BE0108E5
:10230000000C024080B582B000AF78607B681B682B
:10231000044A934201D102F079FF00BF0837BD465D
:1023200080BD00BF0000014080B400AF00BFBD46CB
:102330005DF8047B704780B400AF00BFBD465DF818
:10234000047B704780B400AFFEE780B400AFFEE7C7
:1023500080B400AFFEE780B400AFFEE780B400AF0A
:1023600000BFBD465DF8047B7047000080B500AF3C
:10237000024802F0DDFB00BF80BD00BF74DD00201D
:1023800080B500AF024802F0D3FB00BF80BD00BFA4
:10239000D4DD002080B500AF024800F04AF900BF4C
:1023A00080BD00BF78EE002080B500AF024800F08D
:1023B000F7FC00BF80BD00BF34EE002080B582B0C6
:1023C00000AF00237B60124B5B6C114A43F48043E7
:1023D00053640F4B5B6C03F480437B607B6800238A
:1023E0003B600B4B1B6C0A4A43F080531364084B51
:1023F0001B6C03F080533B603B6800220F216FF0A1
:10240000010002F0B7FE00BF0837BD4680BD00BF27
:102410000038024080B58AB000AF786007F114033D
:1024200000221A605A609A60DA601A617B681B6841
:102430004C4A934240F0918000233B614A4B1B6C15
:10244000494A43F400331364474B1B6C03F40033D5
:102450003B613B690023FB60434B1B6B424A43F0EB
:1024600008031363404B1B6B03F00803FB60FB681E
:102470000C237B610223BB610023FB6103233B62CE
:1024800007237B6207F114031946384802F074F8F9
:10249000374B384A1A60364B4FF000625A60344B63
:1024A00040229A60324B0022DA60314B4FF4806256
:1024B0001A612F4B00225A612D4B00229A612C4B3E
:1024C0000022DA612A4B00221A62294B00225A624A
:1024D000274802F005FA0346002B01D0FFF724FF3E
:1024E0007B68234A1A63224A7B689363224B234A00
:1024F0001A60214B4FF000625A601F4B00229A6015
:102500001D4B0022DA601C4B4FF480621A611A4B9B
:1025100000225A61184B00229A61174B4FF48072C7
:10252000DA61154B00221A62134B00225A621248DC
:1025300002F0D6F90346002B01D0FFF7F5FE7B68C9
:102540000D4A5A630C4A7B689363002205212620BA
:1025500002F010FE262002F029FE00BF2837BD46FB
:1025600080BD00BF0044004000380240000002402F
:10257000D4DD0020A060024074DD002088600240AD
:1025800080B582B000AF78607B68002B01D1012359
:102590001DE07B6893F83D30DBB2002B06D17B68F1
:1025A000002283F83C20786800F015F87B6802224E
:1025B00083F83D207B681A687B680433194610460F
:1025C00000F068F97B68012283F83D20002318465B
:1025D0000837BD4680BD80B483B000AF786000BFCF
:1025E0000C37BD465DF8047B704780B485B000AF02
:1025F00078607B681B68DA687B681B6842F00102C0
:10260000DA607B681B689B6803F00703FB60FB686C
:10261000062B07D07B681B681A687B681B6842F032
:1026200001021A60002318461437BD465DF8047B8A
:10263000704780B582B000AF78607B681B681B690B
:1026400003F00203022B22D17B681B68DB6803F0D6
:102650000203022B1BD17B681B686FF002021A6118
:102660007B6801221A777B681B689B6903F0030370
:10267000002B03D0786800F0EEF805E0786800F0F1
:10268000E0F8786800F0F1F87B6800221A777B6840
:102690001B681B6903F00403042B22D17B681B68B1
:1026A000DB6803F00403042B1BD17B681B686FF00D
:1026B00004021A617B6802221A777B681B689B6997
:1026C00003F44073002B03D0786800F0C4F805E0F1
:1026D000786800F0B6F8786800F0C7F87B680022E8
:1026E0001A777B681B681B6903F00803082B22D14B
:1026F0007B681B68DB6803F00803082B1BD17B6831
:102700001B686FF008021A617B6804221A777B68E5
:102710001B68DB6903F00303002B03D0786800F02B
:102720009AF805E0786800F08CF8786800F09DF879
:102730007B6800221A777B681B681B6903F0100313
:10274000102B22D17B681B68DB6803F01003102B71
:102750001BD17B681B686FF010021A617B6808222E
:102760001A777B681B68DB6903F44073002B03D086
:10277000786800F070F805E0786800F062F8786832
:1027800000F073F87B6800221A777B681B681B696E
:1027900003F00103012B0ED17B681B68DB6803F09B
:1027A0000103012B07D17B681B686FF001021A61DE
:1027B0007868FFF7A7FD7B681B681B6903F080033F
:1027C000802B0ED17B681B68DB6803F08003802BB5
:1027D00007D17B681B686FF080021A61786800F08F
:1027E00003F97B681B681B6903F04003402B0ED183
:1027F0007B681B68DB6803F04003402B07D17B68D4
:102800001B686FF040021A61786800F038F87B6846
:102810001B681B6903F02003202B0ED17B681B680B
:10282000DB6803F02003202B07D17B681B686FF067
:1028300020021A61786800F0CDF800BF0837BD4665
:1028400080BD80B483B000AF786000BF0C37BD4658
:102850005DF8047B704780B483B000AF786000BF40
:102860000C37BD465DF8047B704780B483B000AF81
:10287000786000BF0C37BD465DF8047B704780B4BC
:1028800083B000AF786000BF0C37BD465DF8047BB5
:102890007047000080B485B000AF786039607B6815
:1028A0001B68FB607B68404A934213D07B68B3F19E
:1028B000804F0FD07B683D4A93420BD07B683C4AE7
:1028C000934207D07B683B4A934203D07B683A4AE5
:1028D000934208D1FB6823F07003FB603B685B68A0
:1028E000FA681343FB607B682F4A93422BD07B68C6
:1028F000B3F1804F27D07B682C4A934223D07B686A
:102900002B4A93421FD07B682A4A93421BD07B6894
:10291000294A934217D07B68284A934213D07B6898
:10292000274A93420FD07B68264A93420BD07B689C
:10293000254A934207D07B68244A934203D07B68A0
:10294000234A934208D1FB6823F44073FB603B6841
:10295000DB68FA681343FB60FB6823F080023B6886
:102960005B691343FB607B68FA681A603B689A688E
:102970007B68DA623B681A687B689A627B680A4AFD
:10298000934203D07B680C4A934203D13B681A6997
:102990007B681A637B6801225A6100BF1437BD4609
:1029A0005DF8047B704700BF000001400004004058
:1029B00000080040000C00400004014000400140BD
:1029C000004401400048014000180040001C004045
:1029D0000020004080B483B000AF786000BF0C37A7
:1029E000BD465DF8047B704780B483B000AF78606B
:1029F00000BF0C37BD465DF8047B704780B582B0E0
:102A000000AF78607B68002B01D101233FE07B6839
:102A100093F83930DBB2002B06D17B68002283F8B3
:102A200038207868FFF7F6FC7B68242283F8392089
:102A30007B681B68DA687B681B6822F40052DA60E6
:102A4000786800F023FD7B681B681A697B681B6847
:102A500022F490421A617B681B685A697B681B6884
:102A600022F02A025A617B681B68DA687B681B685F
:102A700042F40052DA607B680022DA637B6820222D
:102A800083F839207B68202283F83A2000231846F7
:102A90000837BD4680BD80B588B002AFF860B96028
:102AA0003B601346FB8000237B61FB6893F8393061
:102AB000DBB2202B40F08380BB68002B02D0FB8868
:102AC000002B01D101237BE0FB6893F83830012B08
:102AD00001D1022374E0FB68012283F83820FB68EF
:102AE0000022DA63FB68212283F8392002F0A2FB7E
:102AF0007861FB68FA889A84FB68FA88DA84FB6854
:102B0000002283F8382042E0FB68DB8C9BB2013B5B
:102B10009AB2FB68DA84FB689B68B3F5805F22D1C8
:102B20003B6800937B6900228021F86800F02DFB50
:102B30000346002B01D0032342E0BB683B613B69A5
:102B40001B881A46FB681B68C2F308025A60FB68C0
:102B50001B69002B03D1BB680233BB6017E0BB6865
:102B60000133BB6013E03B6800937B690022802146
:102B7000F86800F00AFB0346002B01D003231FE096
:102B8000BB685A1CBA601A78FB681B685A60FB68FD
:102B9000DB8C9BB2002BB7D13B6800937B69002292
:102BA0004021F86800F0F1FA0346002B01D003231E
:102BB00006E0FB68202283F83920002300E002238E
:102BC00018461837BD4680BD80B586B000AFF860A6
:102BD000B9601346FB80FB6893F83930DBB2202BD9
:102BE00053D1BB68002B02D0FB88002B01D10123FD
:102BF0004CE0FB6893F83830012B01D1022345E00B
:102C0000FB68012283F83820BA68FB681A62FB6807
:102C1000FA889A84FB68FA88DA84FB680022DA630F
:102C2000FB68212283F83920FB681B6B194ADA63A1
:102C3000FB681B6B184A1A64FB681B6B174ADA6443
:102C4000FB681B6B00221A6507F108037B61FB68B8
:102C5000186B7B691968FB681B6804331A46FB888C
:102C600001F0ECFEFB681B686FF040021A60FB6825
:102C7000002283F83820FB681B685A69FB681B68D0
:102C800042F080025A61002300E002231846183700
:102C9000BD4680BD0530000857300008F7300008F9
:102CA00080B586B000AFF860B9601346FB80FB6862
:102CB00093F83A30DBB2202B66D1BB68002B02D0F0
:102CC000FB88002B01D101235FE0FB6893F83830CB
:102CD000012B01D1022358E0FB68012283F8382040
:102CE000BA68FB689A62FB68FA889A85FB680022DA
:102CF000DA63FB68222283F83A20FB685B6B254A83
:102D0000DA63FB685B6B244A1A64FB685B6B234ADB
:102D1000DA64FB685B6B00221A6507F108037B61CC
:102D2000FB68586BFB681B68043319467B691A689B
:102D3000FB8801F083FE00233B61FB681B681B6876
:102D40003B61FB681B685B683B613B69FB68002279
:102D500083F83820FB681B68DA68FB681B6842F45C
:102D60008072DA60FB681B685A69FB681B6842F076
:102D700001025A61FB681B685A69FB681B6842F0D4
:102D800040025A61002300E0022318461837BD466E
:102D900080BD00BF73300008DB300008F73000084A
:102DA00080B588B000AF78607B681B681B68FB61EA
:102DB0007B681B68DB68BB617B681B685B697B6148
:102DC00000233B610023FB60FB6903F00F033B61C1
:102DD0003B69002B0DD1FB6903F02003002B08D0C9
:102DE000BB6903F02003002B03D0786800F0CDFA14
:102DF000D1E03B69002B00F0B0807B6903F0010358
:102E0000002B05D1BB6903F49073002B00F0A58063
:102E1000FB6903F00103002B0AD0BB6903F4807344
:102E2000002B05D07B68DB6B43F001027B68DA6323
:102E3000FB6903F00403002B0AD07B6903F0010354
:102E4000002B05D07B68DB6B43F002027B68DA6302
:102E5000FB6903F00203002B0AD07B6903F0010336
:102E6000002B05D07B68DB6B43F004027B68DA63E0
:102E7000FB6903F00803002B0FD0BB6903F02003AC
:102E8000002B04D17B6903F00103002B05D07B6884
:102E9000DB6B43F008027B68DA637B68DB6B002B3B
:102EA00078D0FB6903F02003002B07D0BB6903F047
:102EB0002003002B02D0786800F067FA7B681B685B
:102EC0005B6903F04003402B0CBF01230023DBB2FE
:102ED000FB607B68DB6B03F00803002B02D1FB680F
:102EE000002B31D0786800F0B0F97B681B685B6913
:102EF00003F04003402B23D17B681B685A697B6831
:102F00001B6822F040025A617B685B6B002B13D078
:102F10007B685B6B214A1A657B685B6B184601F026
:102F2000E5FD0346002B16D07B685B6B1B6D7A6852
:102F3000526B104698470EE0786800F059F80AE0A6
:102F4000786800F055F806E0786800F051F87B6882
:102F50000022DA631EE000BF1CE0FB6903F080037F
:102F6000002B08D0BB6903F08003002B03D07868E6
:102F700000F09DF90FE0FB6903F04003002B0AD03D
:102F8000BB6903F04003002B05D0786800F0E5F939
:102F900000BF00E000BF2037BD4680BD873200087B
:102FA00080B483B000AF786000BF0C37BD465DF8D9
:102FB000047B704780B483B000AF786000BF0C37EB
:102FC000BD465DF8047B704780B483B000AF786085
:102FD00000BF0C37BD465DF8047B704780B483B0FA
:102FE00000AF786000BF0C37BD465DF8047B7047CA
:102FF00080B483B000AF786000BF0C37BD465DF889
:10300000047B704780B584B000AF78607B689B6BB1
:10301000FB607B681B681B6803F48073002B13D173
:10302000FB680022DA84FB681B685A69FB681B682E
:1030300022F080025A61FB681B68DA68FB681B6833
:1030400042F04002DA6002E0F868FFF7A9FF00BF33
:103050001037BD4680BD80B584B000AF78607B6816
:103060009B6BFB60F868FFF7A5FF00BF1037BD46FC
:1030700080BD80B584B000AF78607B689B6BFB60DF
:103080007B681B681B6803F48073002B1ED1FB68F0
:103090000022DA85FB681B68DA68FB681B6822F48B
:1030A0008072DA60FB681B685A69FB681B6822F053
:1030B00001025A61FB681B685A69FB681B6822F0B1
:1030C00040025A61FB68202283F83A20F868FFF733
:1030D0007BFF00BF1037BD4680BD80B584B000AF18
:1030E00078607B689B6BFB60F868FFF777FF00BF39
:1030F0001037BD4680BD80B584B000AF7860002336
:10310000FB607B689B6BBB60BB681B685B6903F003
:103110008003802B0CBF01230023DBB2FB60BB6864
:1031200093F83930DBB2212B08D1FB68002B05D096
:10313000BB680022DA84B86800F071F8BB681B68CD
:103140005B6903F04003402B0CBF01230023DBB27B
:10315000FB60BB6893F83A30DBB2222B08D1FB68E6
:10316000002B05D0BB680022DA85B86800F06DF846
:10317000BB68DB6B43F01002BB68DA63B868FFF72B
:1031800037FF00BF1037BD4680BD80B584B000AFAB
:10319000F860B9603B601346FB712CE0BB69B3F18A
:1031A000FF3F28D0BB69002B07D002F043F802464E
:1031B0003B68D31ABA699A421DD2FB681B68DA6869
:1031C000FB681B6822F4D072DA60FB681B685A69DE
:1031D000FB681B6822F001025A61FB68202283F819
:1031E0003920FB68202283F83A20FB68002283F80C
:1031F000382003230FE0FB681B681A68BB68134084
:10320000BA689A420CBF01230023DBB21A46FB794D
:103210009A42C3D0002318461037BD4680BD80B403
:1032200083B000AF78607B681B68DA687B681B68D6
:1032300022F0C002DA607B68202283F8392000BFC8
:103240000C37BD465DF8047B704780B483B000AF97
:1032500078607B681B68DA687B681B6822F4907270
:10326000DA607B681B685A697B681B6822F0010280
:103270005A617B68202283F83A2000BF0C37BD4694
:103280005DF8047B704780B584B000AF78607B68E0
:103290009B6BFB60FB680022DA85FB680022DA8406
:1032A000F868FFF7A5FE00BF1037BD4680BD80B4AB
:1032B00085B000AF78607B6893F83930DBB2212BA2
:1032C00044D17B689B68B3F5805F1AD17B681B6A29
:1032D000FB60FB681B881A467B681B68C2F3080208
:1032E0005A607B681B69002B05D17B681B6A9A1C9E
:1032F0007B681A620EE07B681B6A5A1C7B681A6244
:1033000008E07B681B6A591C7A6811621A787B682E
:103310001B685A607B68DB8C9BB2013B9BB27A686E
:103320001946D184002B0FD17B681B68DA687B6853
:103330001B6822F08002DA607B681B68DA687B68B1
:103340001B6842F04002DA60002300E002231846C6
:103350001437BD465DF8047B704780B582B000AF7E
:1033600078607B681B68DA687B681B6822F0400223
:10337000DA607B68202283F839207868FFF710FE36
:10338000002318460837BD4680BD80B584B000AF25
:1033900078607B6893F83A30DBB2222B71D17B687E
:1033A0009B68B3F5805F23D17B689B6AFB607B6879
:1033B0001B69002B0ED17B681B685B689BB2C3F353
:1033C00008039AB2FB681A807B689B6A9A1C7B6828
:1033D0009A6229E07B681B685B689BB2DBB29AB299
:1033E000FB681A807B689B6A5A1C7B689A621BE0A8
:1033F0007B681B69002B0AD17B681B6858687B6857
:103400009B6A591C7A689162C2B21A700CE07B68A0
:103410001B685B68DAB27B689B6A581C79688862B3
:1034200002F07F02D2B21A707B68DB8D9BB2013B47
:103430009BB27A681946D185002B20D17B681B6826
:10344000DA687B681B6822F02002DA607B681B6800
:10345000DA687B681B6822F48072DA607B681B681C
:103460005A697B681B6822F001025A617B6820223E
:1034700083F83A207868FFF7A7FD002302E00023D5
:1034800000E0022318461037BD4680BD2DE9F04FFD
:10349000BDB000AFC7F8E400D7F8E4301B681B6983
:1034A00023F44050D7F8E430D968D7F8E4301A68EC
:1034B00040EA01031361D7F8E4309A68D7F8E430A2
:1034C0001B691A43D7F8E4305B691A43D7F8E43034
:1034D000DB691343C7F8EC30D7F8E4301B68DB68CE
:1034E00023F4164121F00C01D7F8E4301A68D7F81C
:1034F000EC300B43D360D7F8E4301B685B6923F4EE
:103500004070D7F8E4309969D7F8E4301A6840EA97
:1035100001035361D7F8E430DB69B3F5004F40F0A5
:10352000C281D7F8E4301A68704B9A4206D0D7F8B7
:10353000E4301A686E4B9A4240F0DE8000F0D6FF0D
:10354000C7F8E800D7F8E8301D464FF000062B46D4
:103550003446DA18BA6744EB0403FB67D7E91E3434
:103560005B1946EB04044FF000014FF00002E2004B
:1035700042EA5372D9000B4614465A19C7F8D820AC
:1035800044EB0603C7F8DC30D7F8E4305B684FF053
:103590000004DA183A6744EB04037B67D7E91C346C
:1035A0001A462346D7E93601FDF720FB03460C46B1
:1035B0001A46504BA3FB02235B094FEA0318D7F8C6
:1035C000E8301D464FF000062B463446DA18BA663E
:1035D00044EB0403FB66D7E91A345B1946EB040499
:1035E0004FF000014FF00002E20042EA5372D900AE
:1035F0000B4614465A19C7F8D02044EB0603C7F807
:10360000D430D7F8E4305B684FF00004DA183A663B
:1036100044EB04037B66D7E918341A462346D7E9FE
:103620003401FDF7E3FA03460C461A46314BA3FB7F
:1036300002135B09642101FB03F3D31ADB0032336D
:103640002C4AA2FB03235B095B0003F4F873984444
:10365000D7F8E83019464FF000020B461446D81848
:10366000B86544EB0403FB65D7E916345B1842EBFD
:1036700004044FF000054FF00006E60046EA5376DA
:10368000DD002B4634465818C7F8C80044EB020347
:10369000C7F8CC30D7F8E4305B684FF00004DA1894
:1036A0003A6544EB04037B65D7E914341A46234694
:1036B000D7E93201FDF79AFA03460C461A460D4B3C
:1036C000A3FB02135B09642101FB03F3D31ADB00A4
:1036D0003233084AA2FB03235B0903F00702D7F841
:1036E000E4301B6842449A60A7E200BF001001402A
:1036F000001401401F85EB5100F0E4FEC7F8E8001C
:10370000D7F8E8301D464FF000062B463446DA184D
:10371000BA6444EB0403FB64D7E912345B1946EB4B
:1037200004044FF000014FF00002E20042EA53723D
:10373000D9000B4614465A19C7F8C02044EB0603BB
:10374000C7F8C430D7F8E4305B684FF00004DA18EB
:103750003A6444EB04037B64D7E910341A462346E9
:10376000D7E93001FDF742FA03460C461A46C24B30
:10377000A3FB02235B094FEA0318D7F8E8301D4684
:103780004FF000062B463446DA18BA6344EB0403C4
:10379000FB63D7E90E345B1946EB04044FF00001DC
:1037A0004FF00002E20042EA5372D9000B46144681
:1037B0005A19C7F8B82044EB0603C7F8BC30D7F84D
:1037C000E4305B684FF00004DA183A6344EB04031A
:1037D0007B63D7E90C341A462346D7E92E01FDF75F
:1037E00005FA03460C461A46A34BA3FB02135B09DA
:1037F000642101FB03F3D31ADB0032339E4AA2FBA0
:1038000003235B095B0003F4F8739844D7F8E830AE
:1038100019464FF000020B461446D818B86244EB24
:103820000403FB62D7E90A345B1842EB04044FF04F
:1038300000054FF00006E60046EA5376DD002B4611
:1038400034465818C7F8B00044EB0203C7F8B43048
:10385000D7F8E4305B684FF00004DA183A6244EBC2
:1038600004037B62D7E908341A462346D7E92C01C2
:10387000FDF7BCF903460C461A467F4BA3FB021327
:103880005B09642101FB03F3D31ADB0032337A4A6C
:10389000A2FB03235B0903F00702D7F8E4301B689F
:1038A00042449A60C9E1D7F8E4301A68734B9A42EF
:1038B00006D0D7F8E4301A68714B9A4240F0E280A3
:1038C00000F014FEC7F8E800D7F8E8301D464FF0C6
:1038D00000062B46344613EB030A44EB040B534615
:1038E0005C465B1946EB04044FF000014FF0000208
:1038F000E20042EA5372D9000B4614465A19C7F83F
:10390000A82044EB0603C7F8AC30D7F8E4305B6876
:1039100019464FF000024FF000034FF000049400EE
:1039200044EA91748B001A462346D7E92A01FDF731
:103930005DF903460C461A464F4BA3FB02235B0975
:103940004FEA0318D7F8E83019464FF000020B464B
:103950001446D818B86144EB0403FB61D7E9063478
:103960005B1842EB04044FF000054FF00006E60040
:1039700046EA5376DD002B4634465818C7F8A000B7
:1039800044EB0203C7F8A430D7F8E4305B6819466B
:103990004FF000024FF000034FF00004940044EA9F
:1039A00091748B001A462346D7E92801FDF71EF9CA
:1039B00003460C461A46304BA3FB02135B096421F5
:1039C00001FB03F3D31A1B0132332B4AA2FB03235F
:1039D0005B0903F0F0039844D7F8E83019464FF03C
:1039E00000020B461446D818386144EB04037B618F
:1039F000D7E904345B1842EB04044FF000054FF0A4
:103A00000006E60046EA5376DD002B463446581899
:103A1000C7F8980044EB0203C7F89C30D7F8E430AD
:103A20005B6819464FF000024FF000034FF00004AE
:103A3000940044EA91748B001A462346D7E9260184
:103A4000FDF7D4F803460C461A460B4BA3FB0213B2
:103A50005B09642101FB03F3D31A1B013233064ACD
:103A6000A2FB03235B0903F00F02D7F8E4301B68C5
:103A700042449A60E1E000BF1F85EB510010014015
:103A80000014014000F01EFDC7F8E800D7F8E83048
:103A90001D464FF000062B46344613EB030844EB5B
:103AA000040943464C465B1946EB04044FF0000101
:103AB0004FF00002E20042EA5372D9000B4614466E
:103AC0005A19C7F8902044EB0603C7F89430D7F88A
:103AD000E4305B6819464FF000024FF000034FF0EE
:103AE0000004940044EA91748B001A462346D7E9F7
:103AF0002401FDF77BF803460C461A46514BA3FB05
:103B000002235B094FEA0318D7F8E83019464FF053
:103B100000020B461446D818B86044EB0403FB605F
:103B2000D7E902345B1842EB04044FF000054FF074
:103B30000006E60046EA5376DD002B463446581868
:103B4000C7F8880044EB0203C7F88C30D7F8E4309C
:103B50005B6819464FF000024FF000034FF000047D
:103B6000940044EA91748B001A462346D7E9220157
:103B7000FDF73CF803460C461A46324BA3FB0213F2
:103B80005B09642101FB03F3D31A1B0132332D4A75
:103B9000A2FB03235B0903F0F0039844D7F8E83055
:103BA00019464FF000020B461446D818386044EB13
:103BB00004037B60D7E900345B1842EB04044FF048
:103BC00000054FF00006E60046EA5376DD002B467E
:103BD00034465818C7F8800044EB0203C7F8843015
:103BE000D7F8E4305B6819464FF000024FF000034D
:103BF0004FF00004940044EA91748B001A46234667
:103C0000D7E92001FCF7F2FF03460C461A460D4B9C
:103C1000A3FB02135B09642101FB03F3D31A1B010D
:103C20003233084AA2FB03235B0903F00F02D7F8E3
:103C3000E4301B6842449A60FFE700BFF437BD469A
:103C4000BDE8F08F1F85EB5180B586B000AF78607E
:103C50007B68002B01D101235BE27B681B6803F0CA
:103C60000103002B75D0A34B9B6803F00C03042BBE
:103C70000CD0A04B9B6803F00C03082B12D19D4B7A
:103C80005B6803F48003B3F5800F0BD1994B1B687D
:103C900003F40033002B5BD07B685B68002B57D1AB
:103CA000012336E27B685B68B3F5803F06D1914B18
:103CB0001B68904A43F4803313601DE07B685B68A7
:103CC000B3F5A02F0CD18B4B1B688A4A43F4802399
:103CD0001360884B1B68874A43F4803313600BE002
:103CE000844B1B68834A23F480331360814B1B6829
:103CF000804A23F4802313607B685B68002B13D019
:103D000001F098FA386108E001F094FA02463B6944
:103D1000D31A642B01D90323FBE1764B1B6803F410
:103D20000033002BF0D014E001F084FA386108E091
:103D300001F080FA02463B69D31A642B01D90323B0
:103D4000E7E16C4B1B6803F40033002BF0D100E07B
:103D500000BF7B681B6803F00203002B63D0654B38
:103D60009B6803F00C03002B0BD0624B9B6803F0A5
:103D70000C03082B1CD15F4B5B6803F48003002B02
:103D800016D15C4B1B6803F00203002B05D07B6847
:103D9000DB68012B01D00123BBE1564B1B6823F0EC
:103DA000F8027B681B69DB00524913430B603AE061
:103DB0007B68DB68002B20D04F4B01221A6001F09A
:103DC00039FA386108E001F035FA02463B69D31A46
:103DD000022B01D903239CE1464B1B6803F002032D
:103DE000002BF0D0434B1B6823F0F8027B681B6963
:103DF000DB00404913430B6015E03F4B00221A6083
:103E000001F018FA386108E001F014FA02463B6943
:103E1000D31A022B01D903237BE1364B1B6803F035
:103E20000203002BF0D17B681B6803F00803002B12
:103E300030D07B685B69002B16D0304B01221A60B2
:103E400001F0F8F9386108E001F0F4F902463B6945
:103E5000D31A022B01D903235BE1264B5B6F03F0DE
:103E60000203002BF0D015E0244B00221A6001F071
:103E7000E1F9386108E001F0DDF902463B69D31A47
:103E8000022B01D9032344E11A4B5B6F03F00203B9
:103E9000002BF0D17B681B6803F00403002B00F0BB
:103EA000A0800023FB75134B1B6C03F08053002B89
:103EB0000FD10023BB600F4B1B6C0E4A43F08053A5
:103EC00013640C4B1B6C03F08053BB60BB68012375
:103ED000FB750B4B1B6803F48073002B21D1084B3F
:103EE0001B68074A43F48073136001F0A3F938613B
:103EF00011E000BF0038024000004742800E4742F8
:103F00000070004001F096F902463B69D31A022B7B
:103F100001D90323FDE0814B1B6803F48073002B60
:103F2000F0D07B689B68012B06D17D4B1B6F7C4AD0
:103F300043F0010313671CE07B689B68052B0CD1E1
:103F4000774B1B6F764A43F004031367744B1B6F68
:103F5000734A43F0010313670BE0714B1B6F704A08
:103F600023F0010313676E4B1B6F6D4A23F00403AC
:103F700013677B689B68002B15D001F05BF93861F3
:103F80000AE001F057F902463B69D31A41F2883240
:103F9000934201D90323BCE0614B1B6F03F0020382
:103FA000002BEED014E001F045F938610AE001F091
:103FB00041F902463B69D31A41F28832934201D952
:103FC0000323A6E0564B1B6F03F00203002BEED138
:103FD000FB7D012B05D1524B1B6C514A23F08053C2
:103FE00013647B689B69002B00F092804C4B9B68AC
:103FF00003F00C03082B5CD07B689B69022B41D13A
:10400000484B00221A6001F015F9386108E001F010
:1040100011F902463B69D31A022B01D9032378E038
:104020003F4B1B6803F00073002BF0D17B68DA690B
:104030007B681B6A1A437B685B6A9B011A437B6837
:104040009B6A5B08013B1B041A437B68DB6A1B0607
:10405000334913434B60334B01221A6001F0EAF8F5
:10406000386108E001F0E6F802463B69D31A022BFA
:1040700001D903234DE02A4B1B6803F00073002B8A
:10408000F0D045E0274B00221A6001F0D3F83861E8
:1040900008E001F0CFF802463B69D31A022B01D9A0
:1040A000032336E01E4B1B6803F00073002BF0D196
:1040B0002EE07B689B69012B01D1012329E0184B7D
:1040C0005B68FB60FB6803F480027B68DB699A42F3
:1040D0001CD1FB6803F03F027B681B6A9A4215D132
:1040E000FA6847F6C07313407A68526A93420DD15A
:1040F000FB6803F440327B689B6A9A4206D1FB68F6
:1041000003F070627B68DB6A9A4201D0012300E011
:10411000002318461837BD4680BD00BF0070004020
:10412000003802406000474280B584B000AF78603C
:1041300039607B68002B01D10123CCE0684B1B6800
:1041400003F00F033A689A420CD9654B3A68D2B231
:104150001A70634B1B6803F00F033A689A4201D050
:104160000123B8E07B681B6803F00203002B20D01A
:104170007B681B6803F00403002B05D0594B9B6838
:10418000584A43F4E05393607B681B6803F00803CC
:10419000002B05D0534B9B68524A43F46043936015
:1041A000504B9B6823F0F0027B689B684D4913439A
:1041B0008B607B681B6803F00103002B44D07B6895
:1041C0005B68012B07D1474B1B6803F40033002BBE
:1041D00019D101237FE07B685B68022B03D07B68E9
:1041E0005B68032B07D13F4B1B6803F00073002B68
:1041F00009D101236FE03B4B1B6803F00203002B46
:1042000001D1012367E0374B9B6823F003027B68F1
:104210005B68344913438B6001F00CF8F8600AE0E6
:1042200001F008F80246FB68D31A41F28832934243
:1042300001D903234FE02B4B9B6803F00C027B68F2
:104240005B689B009A42EBD1254B1B6803F00F0380
:104250003A689A420CD2224B3A68D2B21A70204B7A
:104260001B6803F00F033A689A4201D0012332E041
:104270007B681B6803F00403002B08D0194B9B6874
:1042800023F4E0527B68DB68164913438B607B683C
:104290001B6803F00803002B09D0124B9B6823F422
:1042A00060427B681B69DB000E4913438B6000F0A2
:1042B00021F801460B4B9B681B0903F00F030A4AC8
:1042C000D35C21FA03F3094A1360094B1B681846B3
:1042D00000F0D2FF002318461037BD4680BD00BF56
:1042E000003C02400038024028DD010808000020A0
:1042F000000000202DE9F04385B000AF00237B6073
:104300000023FB6000233B600023BB60644B9B6881
:1043100003F00C03042B07D0082B08D0002B40F02F
:10432000B680604BBB60B5E05F4BBB60B2E05C4BFE
:104330005B6803F03F037B60594B5B6803F48003C9
:10434000002B4CD0564B5B689B094FF0000440F2A9
:10435000FF114FF0000203EA010804EA0209414696
:104360004A464FF000034FF00004540144EAD16480
:104370004B0119462246B1EB080162EB09024FF0EE
:1043800000034FF00004940144EA91648B015B1A2E
:1043900064EB02044FF000014FF00002E20042EA39
:1043A0005372D9000B46144613EB080344EB09047F
:1043B0004FF000014FF00002620242EAD35259026C
:1043C0000B461446184621467B684FF000041A46F7
:1043D0002346FCF70BFC03460C46FB6049E0304BE0
:1043E0005B689B094FF0000440F2FF114FF00002A0
:1043F00003EA010504EA0206294632464FF00003AB
:104400004FF00004540144EAD1644B01194622469E
:10441000491B62EB06024FF000034FF000049401C9
:1044200044EA91648B015B1A64EB02044FF00001D3
:104430004FF00002E20042EA5372D9000B461446E4
:104440005B1946EB04044FF000014FF00002A2029A
:1044500042EA935299020B461446184621467B685D
:104460004FF000041A462346FCF7C0FB03460C46F7
:10447000FB600B4B5B681B0C03F0030301335B0019
:104480003B60FA683B68B2FBF3F3BB6002E0054BAC
:10449000BB6000BFBB6818461437BD46BDE8F0835B
:1044A000003802400024F40000127A0080B400AF0B
:1044B000034B1B681846BD465DF8047B704700BF80
:1044C0000800002080B500AFFFF7F0FF0146054B64
:1044D0009B689B0A03F00703034AD35C21FA03F3AA
:1044E000184680BD0038024038DD010880B500AFB5
:1044F000FFF7DCFF0146054B9B685B0B03F00703EE
:10450000034AD35C21FA03F3184680BD0038024009
:1045100038DD010880B483B000AF786039607B6813
:104520000F221A60124B9B6803F003027B685A60EB
:104530000F4B9B6803F0F0027B689A600C4B9B6802
:1045400003F4E0527B68DA60094B9B68DB0803F4F4
:10455000E0527B681A61074B1B6803F00F023B684F
:104560001A6000BF0C37BD465DF8047B704700BF82
:1045700000380240003C024080B489B000AF78604F
:10458000396000237B6100233B610023BB61002372
:10459000FB616BE10122FB6902FA03F37B613B687B
:1045A0001B687A6913403B613A697B699A4240F023
:1045B0005A813B685B68012B0BD03B685B68022B20
:1045C00007D03B685B68112B03D03B685B68122BFC
:1045D00030D17B689B68BB61FB695B00032202FAF8
:1045E00003F3DB43BA691340BB613B68DA68FB69DC
:1045F0005B0002FA03F3BA691343BB617B68BA69D3
:104600009A607B685B68BB610122FB6902FA03F375
:10461000DB43BA691340BB613B685B681B0903F06D
:104620000102FB6902FA03F3BA691343BB617B68B9
:10463000BA695A607B68DB68BB61FB695B00032277
:1046400002FA03F3DB43BA691340BB613B689A6823
:10465000FB695B0002FA03F3BA691343BB617B6831
:10466000BA69DA603B685B68022B03D03B685B6821
:10467000122B23D1FB69DA087B68083253F8223009
:10468000BB61FB6903F007039B000F2202FA03F3EF
:10469000DB43BA691340BB613B681A69FB6903F0ED
:1046A00007039B0002FA03F3BA691343BB61FB697A
:1046B000DA087B680832B96943F822107B681B6806
:1046C000BB61FB695B00032202FA03F3DB43BA69B7
:1046D0001340BB613B685B6803F00302FB695B004E
:1046E00002FA03F3BA691343BB617B68BA691A60C3
:1046F0003B685B6803F08053002B00F0B48000231C
:10470000FB605F4B5B6C5E4A43F4804353645C4BDD
:104710005B6C03F48043FB60FB685A4AFB699B08AF
:10472000023352F82330BB61FB6903F003039B00A3
:104730000F2202FA03F3DB43BA691340BB617B68C3
:10474000514A93422BD07B68504A934225D07B68D4
:104750004F4A93421FD07B684E4A934219D07B68E0
:104760004D4A934213D07B684C4A93420DD07B68EC
:104770004B4A934207D07B684A4A934201D10723B0
:104780000EE008230CE006230AE0052308E00423DA
:1047900006E0032304E0022302E0012300E00023FB
:1047A000FA6902F0030292009340BA691343BB61B5
:1047B0003449FB699B080233BA6941F823203A4B1C
:1047C0001B68BB613B69DB43BA691340BB613B6853
:1047D0005B6803F48033002B03D0BA693B69134351
:1047E000BB61314ABB6913602F4B5B68BB613B699E
:1047F000DB43BA691340BB613B685B6803F4003379
:10480000002B03D0BA693B691343BB61264ABB69DD
:104810005360254B9B68BB613B69DB43BA6913401E
:10482000BB613B685B6803F48013002B03D0BA695B
:104830003B691343BB611C4ABB6993601A4BDB683D
:10484000BB613B69DB43BA691340BB613B685B6892
:1048500003F40013002B03D0BA693B691343BB6117
:10486000114ABB69D360FB690133FB61FB690F2B04
:104870007FF690AE00BF2437BD465DF8047B7047DD
:1048800000380240003801400000024000040240AD
:1048900000080240000C02400010024000140240D8
:1048A00000180240001C0240003C014080B483B06C
:1048B00000AF78600B467B8013467B707B78002BC3
:1048C00003D07A887B689A6103E07B881A047B684E
:1048D0009A6100BF0C37BD465DF8047B704700004D
:1048E00080B586B000AF786000237B6100F0A2FC49
:1048F00038617B68002B01D1012399E07B6800229D
:1049000083F834207B68022283F835207B681B689B
:104910001A687B681B6822F001021A600FE000F041
:1049200089FC02463B69D31A052B08D97B682022F3
:104930005A657B68032283F83520032378E07B687F
:104940001B681B6803F00103002BE8D17B681B6820
:104950001B687B617A69384B13407B617B685A68BE
:104960007B689B681A437B68DB681A437B681B691A
:104970001A437B685B691A437B689B691A437B68AF
:10498000DB691A437B681B6A13437A6913437B61B3
:104990007B685B6A042B07D17B68DA6A7B681B6BD8
:1049A00013437A6913437B617B681B687A691A60D9
:1049B0007B681B685B697B617B6923F007037B6114
:1049C0007B685B6A7A6913437B617B685B6A042B53
:1049D00017D17B689B6A7A6913437B617B68DB6ACA
:1049E000002B0ED0786800F091FA0346002B08D017
:1049F0007B6840225A657B68012283F835200123B9
:104A000016E07B681B687A695A61786800F048FA9A
:104A10000346FB607B68DB6D3F229A40FB689A602F
:104A20007B6800225A657B68012283F835200023C9
:104A300018461837BD4680BD3F8010F080B586B05F
:104A400000AFF860B9607A603B600023FB75FB68DB
:104A50009B6D3B61FB6893F83430012B01D102233D
:104A600040E0FB68012283F83420FB6893F835307E
:104A7000DBB2012B2FD1FB68022283F83520FB68C3
:104A800000225A653B687A68B968F86800F0DAF97C
:104A9000FB68DB6D3F229A403B699A60FB681B68AC
:104AA0001A68FB681B6842F016021A60FB681B6CF0
:104AB000002B07D0FB681B681A68FB681B6842F074
:104AC00008021A60FB681B681A68FB681B6842F0E2
:104AD00001021A6005E0FB68002283F834200223FB
:104AE000FB75FB7D18461837BD4680BD80B483B08A
:104AF00000AF78607B6893F83530DBB2022B04D0CE
:104B00007B6880225A6501230CE07B68052283F8CC
:104B100035207B681B681A687B681B6822F00102DD
:104B20001A60002318460C37BD465DF8047B7047B9
:104B300080B586B000AF78600023BB60924B1B68E5
:104B4000924AA2FB03239B0A7B617B689B6D3B61BE
:104B50003B691B68FB607B68DB6D08229A40FB6841
:104B60001340002B1AD07B681B681B6803F00403FA
:104B7000002B13D07B681B681A687B681B6822F0C7
:104B800004021A607B68DB6D08229A403B699A60D8
:104B90007B685B6D43F001027B685A657B68DB6D67
:104BA00001229A40FB681340002B12D07B681B68DF
:104BB0005B6903F08003002B0BD07B68DB6D012267
:104BC0009A403B699A607B685B6D43F002027B68A8
:104BD0005A657B68DB6D04229A40FB681340002B0A
:104BE00012D07B681B681B6803F00203002B0BD0FC
:104BF0007B68DB6D04229A403B699A607B685B6D41
:104C000043F004027B685A657B68DB6D10229A4092
:104C1000FB681340002B43D07B681B681B6803F0C4
:104C20000803002B3CD07B68DB6D10229A403B6967
:104C30009A607B681B681B6803F48023002B18D0E4
:104C40007B681B681B6803F40023002B08D17B687A
:104C50001B6C002B24D07B681B6C786898471FE086
:104C60007B689B6C002B1BD07B689B6C786898479B
:104C700016E07B681B681B6803F48073002B07D168
:104C80007B681B681A687B681B6822F008021A6040
:104C90007B681B6C002B03D07B681B6C7868984783
:104CA0007B68DB6D20229A40FB681340002B00F0EC
:104CB0008E807B681B681B6803F01003002B00F0DC
:104CC00086807B68DB6D20229A403B699A607B6816
:104CD00093F83530DBB2052B36D17B681B681A6838
:104CE0007B681B6822F016021A607B681B685A6991
:104CF0007B681B6822F080025A617B681B6C002B6A
:104D000003D17B689B6C002B07D07B681B681A68FB
:104D10007B681B6822F008021A607B68DB6D3F220B
:104D20009A403B699A607B68002283F834207B6854
:104D3000012283F835207B681B6D002B7DD07B68BA
:104D40001B6D7868984778E07B681B681B6803F4E4
:104D50008023002B1CD07B681B681B6803F4002396
:104D6000002B08D17B685B6C002B30D07B685B6CC0
:104D7000786898472BE07B68DB6B002B27D07B683B
:104D8000DB6B7868984722E008000020B5814E1B55
:104D90007B681B681B6803F48073002B0FD17B6852
:104DA0001B681A687B681B6822F010021A607B6817
:104DB000002283F834207B68012283F835207B6849
:104DC000DB6B002B03D07B68DB6B786898477B68D4
:104DD0005B6D002B32D07B685B6D03F00103002B11
:104DE00022D07B68052283F835207B681B681A680F
:104DF0007B681B6822F001021A60BB680133BB604C
:104E00007A699A4207D37B681B681B6803F0010329
:104E1000002BF2D100E000BF7B68002283F8342031
:104E20007B68012283F835207B68DB6C002B05D082
:104E30007B68DB6C7868984700E000BF1837BD4698
:104E400080BD00BF80B485B000AFF860B9607A6003
:104E50003B60FB681B681A68FB681B6822F48022B1
:104E60001A60FB681B683A685A60FB689B68402BB5
:104E700008D1FB681B687A689A60FB681B68BA688F
:104E8000DA6007E0FB681B68BA689A60FB681B6819
:104E90007A68DA6000BF1437BD465DF8047B70475E
:104EA00080B485B000AF78607B681B68DBB2103BD4
:104EB000144AA2FB03231B09FB60134AFB6813443B
:104EC0001B781A467B68DA65FB68032B09D97B6877
:104ED0001B6823F47F7323F003031A1D7B689A6514
:104EE00007E07B681B6823F47F7323F003037A6871
:104EF00093657B689B6D18461437BD465DF8047B4F
:104F0000704700BFABAAAAAA20DD010880B485B013
:104F100000AF78600023FB737B689B6ABB607B6893
:104F20009B69002B1FD1BB68032B56D801A252F8F6
:104F300023F000BF454F0008574F0008454F0008B9
:104F4000DB4F00087B68DB6A03F08073002B46D0E0
:104F50000123FB7343E07B68DB6AB3F1C07F40D180
:104F60000123FB733DE07B689B69B3F5005F21D1B2
:104F7000BB68032B37D801A252F823F08D4F0008ED
:104F8000934F00088D4F0008A54F00080123FB73C5
:104F900030E07B68DB6A03F08073002B25D00123AF
:104FA000FB7322E07B68DB6AB3F1C07F1FD1012372
:104FB000FB731CE0BB68022B03D9BB68032B03D037
:104FC00018E00123FB7315E07B68DB6A03F0807354
:104FD000002B0ED00123FB730BE000BF0AE000BFE3
:104FE00008E000BF06E000BF04E000BF02E000BF31
:104FF00000E000BFFB7B18461437BD465DF8047B1C
:10500000704700BF80B485B000AF78607B6803F064
:105010000703FB600C4BDB68BB60BA684FF6FF030D
:105020001340BB60FB681A02BB68134343F0BF63C5
:1050300043F40033BB60044ABB68D36000BF14373D
:10504000BD465DF8047B704700ED00E080B400AF22
:10505000044BDB681B0A03F007031846BD465DF8E6
:10506000047B704700ED00E080B483B000AF0346DE
:10507000FB7197F90730002B0BDBFB7903F01F0264
:10508000074997F907305B09012000FA02F241F85D
:10509000232000BF0C37BD465DF8047B704700BF7E
:1050A00000E100E080B483B000AF03463960FB71DB
:1050B00097F90730002B0ADB3B68DAB20C4997F905
:1050C00007301201D2B20B4483F800230AE03B6898
:1050D000DAB20849FB7903F00F03043B1201D2B2A4
:1050E0000B441A7600BF0C37BD465DF8047B704751
:1050F00000E100E000ED00E080B489B000AFF860AE
:10510000B9607A60FB6803F00703FB61FB69C3F1D8
:105110000703042B28BF0423BB61FB690433062B60
:1051200002D9FB69033B00E000237B614FF0FF32B3
:10513000BB6902FA03F3DA43BB681A407B699A4001
:105140004FF0FF317B6901FA03F3D9437B680B40D1
:10515000134318462437BD465DF8047B704780B57D
:1051600082B000AF78607868FFF74CFF00BF083767
:10517000BD4680BD80B586B000AF0346B9607A6099
:10518000FB7300237B61FFF761FF78617A68B96880
:105190007869FFF7B1FF024697F90F3011461846BC
:1051A000FFF780FF00BF1837BD4680BD80B582B0D5
:1051B00000AF0346FB7197F907301846FFF754FF1D
:1051C00000BF0837BD4680BD80B500AF0E4B1B68E1
:1051D0000D4A43F4007313600B4B1B680A4A43F4F7
:1051E00080631360084B1B68074A43F480731360A5
:1051F0000320FFF7B4FF002000F03EF8FDF7DEF8D3
:105200000023184680BD00BF003C024080B400AFC0
:10521000064B1B781A46064B1B681344044A13605E
:1052200000BFBD465DF8047B704700BF040000204E
:1052300074EE002080B400AF034B1B681846BD46D7
:105240005DF8047B704700BF74EE002080B400AFAF
:10525000084BD3F88830074A43F47003C2F888300B
:10526000044B4FF000629A6000BFBD465DF8047BBE
:10527000704700BF00ED00E080B58CB000AF7860F3
:105280000023FB620023BB62002279681920FFF72C
:1052900071FF1920FFF78AFF0023FB601F4B5B6C37
:1052A0001E4A43F0010353641C4B5B6C03F0010383
:1052B000FB60FB6807F1100207F114031146184662
:1052C000FFF728F9FFF712F903465B00FB62FB6A60
:1052D000134AA2FB03239B0C013BBB62114B124AF6
:1052E0001A60104B40F2E732DA600E4ABB6A536034
:1052F0000C4B00221A610B4B00229A600948FDF703
:105300003FF90346002B04D10648FDF76EF903462A
:1053100000E0012318463037BD4680BD003802400A
:1053200083DE1B4378EE00200000014080B483B090
:1053300000AF78607B6803F108027B685A607B6885
:105340004FF0FF329A607B6803F108027B68DA60F5
:105350007B6803F108027B681A617B6800221A608F
:1053600000BF0C37BD465DF8047B704780B483B046
:1053700000AF78607B6800221A6100BF0C37BD4621
:105380005DF8047B704780B485B000AF7860396009
:105390007B685B68FB603B68FA685A60FB689A68E8
:1053A0003B689A60FB689B683A685A60FB683A6899
:1053B0009A603B687A681A617B681B685A1C7B6834
:1053C0001A6000BF1437BD465DF8047B704780B497
:1053D00085B000AF786039603B681B68BB60BB6814
:1053E000B3F1FF3F03D17B681B69FB600CE07B6876
:1053F0000833FB6002E0FB685B68FB60FB685B688E
:105400001B68BA689A42F6D2FB685A683B685A60D1
:105410003B685B683A689A603B68FA689A60FB6828
:105420003A685A603B687A681A617B681B685A1C44
:105430007B681A6000BF1437BD465DF8047B704777
:1054400080B485B000AF78607B681B69FB607B68C7
:105450005B687A6892689A607B689B687A68526831
:105460005A60FB685B687A689A4203D17B689A68E5
:10547000FB685A607B6800221A61FB681B685A1E31
:10548000FB681A60FB681B6818461437BD465DF858
:10549000047B704780B584B000AF786039607B686A
:1054A000FB60FB68002B09D14FF0500383F3118898
:1054B000BFF36F8FBFF34F8FBB60FEE702F00EFCB0
:1054C000FB681A68FB68DB6BF968096C01FB03F386
:1054D0001A44FB689A60FB6800229A63FB681A68AA
:1054E000FB685A60FB681A68FB68DB6B013BF96874
:1054F000096C01FB03F31A44FB68DA60FB68FF22C6
:1055000083F84420FB68FF2283F845203B68002B8A
:1055100014D1FB681B69002B1AD0FB6810331846A6
:1055200001F024FB0346002B12D00D4B4FF08052AC
:105530001A60BFF34F8FBFF36F8F09E0FB68103322
:105540001846FFF7F3FEFB6824331846FFF7EEFE1C
:1055500002F0F2FB012318461037BD4680BD00BFA4
:1055600004ED00E080B58EB002AFF860B9607A60FB
:105570003B60FB68002B09D14FF0500383F3118887
:10558000BFF36F8FBFF34F8FBB62FEE73B68002B0B
:1055900009D14FF0500383F31188BFF36F8FBFF32E
:1055A0004F8F7B62FEE77B68002B02D0BB68002B2D
:1055B00001D0012300E00023002B09D14FF050035C
:1055C00083F31188BFF36F8FBFF34F8F3B62FEE70A
:1055D0007B68002B02D1BB68002B01D1012300E0C6
:1055E0000023002B09D14FF0500383F31188BFF340
:1055F0006F8FBFF34F8FFB61FEE750237B617B69A9
:10560000502B09D04FF0500383F31188BFF36F8FF5
:10561000BFF34F8FBB61FEE77B693B68FB62FB6AB0
:10562000002B0DD0FB6A012283F8462097F8382022
:10563000FB6A009313467A68B968F86800F005F8C9
:10564000FB6A18463037BD4680BD80B584B000AFD8
:10565000F860B9607A60FB70BB68002B03D1BB694E
:10566000BA691A6002E0BB697A681A60BB69FA68B5
:10567000DA63BB69BA681A640121B869FFF70AFFE7
:10568000BB69FA7883F84C2000BF1037BD4680BD57
:1056900080B58EB000AFF860B9607A603B600023DF
:1056A0007B63FB683B633B6B002B09D14FF05003DE
:1056B00083F31188BFF36F8FBFF34F8FBB62FEE799
:1056C000BB68002B03D13B6B1B6C002B01D101236A
:1056D00000E00023002B09D14FF0500383F3118821
:1056E000BFF36F8FBFF34F8F7B62FEE73B68022BE8
:1056F00003D13B6BDB6B012B01D1012300E00023C5
:10570000002B09D14FF0500383F31188BFF36F8F43
:10571000BFF34F8F3B62FEE701F0D8FC0346002B3E
:1057200002D17B68002B01D1012300E00023002B74
:1057300009D14FF0500383F31188BFF36F8FBFF38C
:105740004F8FFB61FEE702F0C9FA3B6B9A6B3B6B34
:10575000DB6B9A4202D33B68022B29D13A68B968C5
:10576000386B00F0FFF9F8623B6B5B6A002B10D0DE
:105770003B6B2433184601F0F9F90346002B13D094
:105780003F4B4FF080521A60BFF34F8FBFF36F8FC4
:105790000AE0FB6A002B07D0394B4FF080521A60A9
:1057A000BFF34F8FBFF36F8F02F0C6FA012363E0A0
:1057B0007B68002B03D102F0BFFA00235CE07B6B17
:1057C000002B06D107F11403184601F057FA012304
:1057D0007B6302F0B1FA00F041FE02F07FFA3B6B0E
:1057E00093F844305BB2B3F1FF3F03D13B6B00222F
:1057F00083F844203B6B93F845305BB2B3F1FF3F35
:1058000003D13B6B002283F8452002F095FA3A1D44
:1058100007F114031146184601F046FA0346002B1F
:1058200024D1386B00F096FA0346002B18D03B6B5E
:1058300010337A681146184601F04AF9386B00F0C7
:1058400021FA00F019FE0346002B7FF47CAF0C4BCD
:105850004FF080521A60BFF34F8FBFF36F8F72E724
:10586000386B00F00FFA00F007FE6CE7386B00F0C1
:1058700009FA00F001FE002318463837BD4680BD06
:1058800004ED00E080B58EB000AFF860B9607A60DA
:105890003B60FB683B633B6B002B09D14FF050032F
:1058A00083F31188BFF36F8FBFF34F8F7B62FEE7E7
:1058B000BB68002B03D13B6B1B6C002B01D1012378
:1058C00000E00023002B09D14FF0500383F311882F
:1058D000BFF36F8FBFF34F8F3B62FEE73B68022B36
:1058E00003D13B6BDB6B012B01D1012300E00023D3
:1058F000002B09D14FF0500383F31188BFF36F8F52
:10590000BFF34F8FFB61FEE702F0C4FAEFF31182A1
:105910004FF0500383F31188BFF36F8FBFF34F8FA6
:10592000BA617B61BB69FB623B6B9A6B3B6BDB6B68
:105930009A4202D33B68022B2CD13B6B93F8453043
:1059400087F82B303A68B968386B00F00BF997F993
:105950002B30B3F1FF3F12D13B6B5B6A002B16D0AB
:105960003B6B2433184601F001F90346002B0ED09F
:105970007B68002B0BD07B6801221A6007E097F848
:105980002B300133DBB25AB23B6B83F84520012345
:105990007B6301E000237B63FB6A3B613B6983F32C
:1059A00011887B6B18463837BD4680BD80B58CB0FA
:1059B00000AFF860B9607A600023FB62FB68BB62ED
:1059C000BB6A002B09D14FF0500383F31188BFF35A
:1059D0006F8FBFF34F8F3B62FEE7BB68002B03D195
:1059E000BB6A1B6C002B01D1012300E00023002BBC
:1059F00009D14FF0500383F31188BFF36F8FBFF3CA
:105A00004F8FFB61FEE701F061FB0346002B02D1E3
:105A10007B68002B01D1012300E00023002B09D17A
:105A20004FF0500383F31188BFF36F8FBFF34F8F95
:105A3000BB61FEE702F052F9BB6A9B6B7B627B6A3B
:105A4000002B1FD0B968B86A00F0F6F87B6A5A1EBE
:105A5000BB6A9A63BB6A1B69002B0FD0BB6A103309
:105A6000184601F083F80346002B07D03C4B4FF05B
:105A700080521A60BFF34F8FBFF36F8F02F05CF953
:105A8000012369E07B68002B03D102F055F9002364
:105A900062E0FB6A002B06D107F11003184601F003
:105AA000EDF80123FB6202F047F900F0D7FC02F0A9
:105AB00015F9BB6A93F844305BB2B3F1FF3F03D1F1
:105AC000BB6A002283F84420BB6A93F845305BB27E
:105AD000B3F1FF3F03D1BB6A002283F8452002F0F7
